:020000040000FA
:100000000C945D000C9485000C9485000C94850084
:100010000C9485000C9485000C9485000C9485004C
:100020000C9485000C9485000C9485000C9485003C
:100030000C9485000C9485000C9485000C9485002C
:100040000C9400030C9485000C9485000C9485009E
:100050000C9485000C9485000C9485000C9485000C
:100060000C9485000C94850000000008000201003B
:100070000003040700000000000000000000000072
:10008000250028002B0000000000240027002A0083
:10009000040404040404040402020202020203032E
:1000A0000303030301020408102040800102040836
:1000B0001020010204081020B10411241FBECFEF4C
:1000C000D8E0DEBFCDBF11E0A0E0B1E0E8E8FDE0A0
:1000D00002C005900D92A233B107D9F721E0A2E347
:1000E000B1E001C01D92A335B207E1F710E0CDE504
:1000F000D0E004C02197FE010E94BC06CC35D10798
:10010000C9F70E944A030C94C2060C94000090E0C8
:10011000FC01EC55FF4F249180579F4FFC018491C7
:10012000882399F090E0880F991FFC01EA57FF4F50
:10013000A591B491FC01E458FF4F859194918FB73C
:10014000F894EC91E22BEC938FBF0895AF92BF929D
:10015000CF92DF92EF92FF920F931F93CF93DF9393
:100160006C017B018B01040F151FEB015E01AE18C2
:10017000BF08C017D10759F06991D601ED91FC91E4
:100180000190F081E02DC6010995892B79F7C50111
:10019000DF91CF911F910F91FF90EF90DF90CF9063
:1001A000BF90AF90089590E0FC01E859FF4F249173
:1001B000FC01EC55FF4F3491FC01E057FF4FE491F7
:1001C000EE23C9F0222339F0233001F1A8F42130C5
:1001D00019F1223029F1F0E0EE0FFF1FE458FF4F34
:1001E000A591B4918FB7F894EC91611126C0309528
:1001F0003E233C938FBF08952730A9F02830C9F0E3
:10020000243049F7809180008F7D03C08091800069
:100210008F7780938000DFCF84B58F7784BDDBCF6D
:1002200084B58F7DFBCF8091B0008F778093B00035
:10023000D2CF8091B0008F7DF9CF3E2BDACF8E30B8
:1002400008F08E508770806480937C0080917A00E3
:10025000806480937A0080917A0086FDFCCF809143
:1002600078009091790008953FB7F8948091370114
:1002700090913801A0913901B0913A0126B5A89B1F
:1002800005C02F3F19F00196A11DB11D3FBFBA2F28
:10029000A92F982F8827BC01CD01620F711D811DE8
:1002A000911D42E0660F771F881F991F4A95D1F76D
:1002B0000895089590E080E00895FC0101900020E9
:1002C000E9F73197AF01481B590BBC018BE391E073
:1002D0000C94A6008F929F92AF92BF920F931F93A0
:1002E000CF93DF93CDB7DEB7A1970FB6F894DEBFFB
:1002F0000FBECDBF19A2423008F44AE08E010F5D57
:100300001F4F842E912CB12CA12CA50194010E9489
:100310009A06E62FB901CA01EA30F4F4E05DD8018B
:10032000EE938D01232B242B252B79F790E080E091
:10033000109719F0CD010E945D01A1960FB6F894B7
:10034000DEBF0FBECDBFDF91CF911F910F91BF9048
:10035000AF909F908F900895E95CE1CFCF93DF93AA
:10036000EC0160E08E810E94D30061E08E810E94EA
:10037000D30060E08E810E94D3008BE891E001976A
:10038000F1F7DF91CF910895CF92DF92EF92FF9234
:100390000F931F93CF93DF936C017C0187E0E80EEE
:1003A000F11CD0E0C0E0062F10E0B8010C2E02C016
:1003B000759567950A94E2F76170F70181917F0165
:1003C0000E94D3002196C430D10579F7C601DF9190
:1003D000CF911F910F91FF90EF90DF90CF900C94F1
:1003E000AE01CF92DF92EF92FF920F931F93CF93C4
:1003F000DF93EC01F62E642F8C810E94D3008D8157
:100400008F3F19F060E00E94D3000F2D10E08F8520
:1004100084FF25C06E0187E0C80ED11CF12CE12CB1
:10042000B8010E2C02C0759567950A94E2F76170C9
:10043000F60181916F010E94D300FFEFEF1AFF0ACE
:1004400088E0E816F10461F7CE01DF91CF911F91AA
:100450000F91FF90EF90DF90CF900C94AE01B80118
:1004600084E0759567958A95E1F7CE010E94C401F5
:100470006F2DCE01DF91CF911F910F91FF90EF90E3
:10048000DF90CF900C94C40140E0682F8BE391E0A3
:100490000C94F101CF93DF93613029F090914A01E0
:1004A000986090934A0160934E0110924F0190E43E
:1004B0009093500180935101805C80935201809110
:1004C0003F010E948700809140018F3F11F00E9400
:1004D0008700809141010E948700CBE3D1E09E011B
:1004E0002B53314080914A0184FD0AC084E090E0A2
:1004F0002196281739073CF48E810E948700EFCFA0
:1005000088E090E0F5CF8BE39DE00197F1F760E0A4
:1005100080913F010E94D30060E0809141010E94E0
:10052000D300809140018F3F19F060E00E94D3001A
:1005300080914A0184FD39C063E08BE391E00E9421
:10054000C401CBE4D6E4CE010197F1F763E08BE37D
:1005500091E00E94C4012197F1F763E08BE391E001
:100560000E94C40183E592E00197F1F762E08BE31A
:1005700091E00E94C40180914A0180620E9444027D
:1005800084E080934B018CE00E94440281E00E9451
:1005900044028BE39FE10197F1F782E080934C01E5
:1005A00086E0DF91CF910C94440280620E94440265
:1005B0008BE496E40197F1F780914A0180620E94F2
:1005C000440283E592E00197F1F780914A0180624D
:1005D0000E944402D0CF90914E01691710F06FEF46
:1005E000690FE62FF0E0E55CFE4F9489890F806883
:1005F0000C94440241E00E94F10181E090E00895F2
:100600001F920F920FB60F9211242F933F938F9347
:100610009F93AF93BF938091330190913401A09148
:100620003501B09136013091320123E0230F2D378F
:1006300058F50196A11DB11D20933201809333011D
:1006400090933401A0933501B09336018091370126
:1006500090913801A0913901B0913A010196A11D04
:10066000B11D8093370190933801A0933901B09365
:100670003A01BF91AF919F918F913F912F910F9030
:100680000FBE0F901F90189526E8230F0296A11D0C
:10069000B11DD2CF789484B5826084BD84B5816069
:1006A00084BD85B5826085BD85B5816085BD80913D
:1006B0006E00816080936E001092810080918100B5
:1006C00082608093810080918100816080938100AD
:1006D000809180008160809380008091B10084606F
:1006E0008093B1008091B00081608093B0008091D0
:1006F0007A00846080937A0080917A00826080938F
:100700007A0080917A00816080937A0080917A00EB
:10071000806880937A001092C10064E084E10E94B6
:100720004A0260E080E00E94EB028CE091E00E94CF
:100730005D0161E080E00E94EB028DE191E00E94AA
:100740005D010E9434014B015C0188EEC82E83E0FC
:10075000D82EE12CF12C0E943401681979098A09FC
:100760009B09683E734081059105A8F321E0C21AF8
:10077000D108E108F10888EE880E83E0981EA11CDC
:10078000B11CC114D104E104F10429F781E00E94F5
:1007900044028BE39FE10197F1F7C0E0D0E08EE0E7
:1007A0000E941F018EE00E941F01BC01990F880B5F
:1007B000990B0E94730520E030E040EA5BE30E9461
:1007C000280620E030E048EC52E40E9428066B0145
:1007D0007C014B015C0162E080E00E94EB0280E161
:1007E00091E00E945D0163E080E00E94EB02A701BE
:1007F0009601C701B6010E9495068823E1F084E2C4
:1008000091E00E945D0163E086E00E94EB0241E01E
:1008100069EE8BE391E00E94F10163E087E00E94C2
:10082000EB0280E391E00E945D01209709F4B7CFCD
:100830000E940000B4CF26013701E89477F82FEF2B
:100840003FEF4FE75FE7C301B2010E9495068111B8
:100850000DC02FEF3FEF4FE75FE7C301B2010E94EA
:100860003D0518161CF488E291E0CBCF2FEF3FEF47
:100870004FE75FE4C701B6010E94230618161CF477
:100880008CE291E0BECF2FEF3FEF4FE75FECC70167
:10089000B6010E943D0587FDF3CF20E030E0A901BD
:1008A000C701B6010E943D0587FF0CC041E06DE223
:1008B0008BE391E00E94F10146015701B7FAB09431
:1008C000B7F8B0942AE037ED43EA5BE3C501B40121
:1008D0000E94D1044B015C010E9442056B017C0126
:1008E0000E9471059B01AC01C501B4010E94D004B6
:1008F0004B015C014AE0C701B6010E946A0141E078
:100900006EE28BE391E00E94F10120E030E040E2F2
:1009100051E4C501B4010E9428064B015C010E940C
:1009200042056B01F12CE12C4AE0C701B6010E949F
:100930006A01C701B6010E9471059B01AC01C501A6
:10094000B4010E94D00420E030E040E251E40E9473
:1009500028060E94420590E080E04AE00E946A0179
:1009600052CFEBE3F1E01382128284E091E09183B5
:1009700080838DE084838FEF85838CE086838BE09A
:1009800087838AE0808789E0818788E08287138671
:10099000148615861686178661E080E10C944A025B
:1009A0005058BB27AA270E94E8040C94E9050E942E
:1009B000DB0538F00E94E20520F039F49F3F19F47E
:1009C00026F40C94D8050EF4E095E7FB0C94D205C0
:1009D000E92F0E94FA0558F3BA17620773078407D4
:1009E000950720F079F4A6F50C941C060EF4E0951A
:1009F0000B2EBA2FA02D0B01B90190010C01CA01D9
:100A0000A0011124FF27591B99F0593F50F4503E83
:100A100068F11A16F040A22F232F342F4427585F75
:100A2000F3CF469537952795A795F0405395C9F78D
:100A30007EF41F16BA0B620B730B840BBAF0915045
:100A4000A1F0FF0FBB1F661F771F881FC2F70EC0E4
:100A5000BA0F621F731F841F48F4879577956795B7
:100A6000B795F7959E3F08F0B0CF9395880F08F0A3
:100A70009927EE0F9795879508950E94AE0508F483
:100A800081E008950E94020688F09F5798F0B92FE0
:100A90009927B751B0F0E1F0660F771F881F991FB3
:100AA0001AF0BA95C9F714C0B13091F00E941C0633
:100AB000B1E008950C941C06672F782F8827B85F43
:100AC00039F0B93FCCF3869577956795B395D9F70B
:100AD0003EF490958095709561957F4F8F4F9F4F15
:100AE0000895E89409C097FB3EF490958095709521
:100AF00061957F4F8F4F9F4F9923A9F0F92F96E96A
:100B0000BB279395F695879577956795B795F111DE
:100B1000F8CFFAF4BB0F11F460FF1BC06F5F7F4F7B
:100B20008F4F9F4F16C0882311F096E911C077238D
:100B300021F09EE8872F762F05C0662371F096E896
:100B4000862F70E060E02AF09A95660F771F881F65
:100B5000DAF7880F9695879597F90895990F000809
:100B6000550FAA0BE0E8FEEF16161706E807F9077F
:100B7000C0F012161306E407F50798F0621B730B1A
:100B8000840B950B39F40A2661F0232B242B252B9B
:100B900021F408950A2609F4A140A6958FEF811D3E
:100BA000811D089597F99F6780E870E060E00895DF
:100BB0009FEF80EC089500240A9416161706180675
:100BC0000906089500240A94121613061406050651
:100BD0000895092E0394000C11F4882352F0BB0FE2
:100BE00040F4BF2B11F460FF04C06F5F7F4F8F4F45
:100BF0009F4F089557FD9058440F551F59F05F3F80
:100C000071F04795880F97FB991F61F09F3F79F02E
:100C100087950895121613061406551FF2CF4695B0
:100C2000F1DF08C0161617061806991FF1CF869532
:100C30007105610508940895E894BB276627772716
:100C4000CB0197F908950E94AE0508F48FEF08953F
:100C50000E943B060C94E9050E94DB0538F00E94D7
:100C6000E20520F0952311F00C94D2050C94D805E0
:100C700011240C941D060E94FA0570F3959FC1F390
:100C8000950F50E0551F629FF001729FBB27F00D3A
:100C9000B11D639FAA27F00DB11DAA1F649F66278F
:100CA000B00DA11D661F829F2227B00DA11D621FDE
:100CB000739FB00DA11D621F839FA00D611D221F98
:100CC000749F3327A00D611D231F849F600D211D7C
:100CD000822F762F6A2F11249F5750409AF0F1F0FF
:100CE00088234AF0EE0FFF1FBB1F661F771F881F68
:100CF00091505040A9F79E3F510580F00C94D205C9
:100D00000C941D065F3FE4F3983ED4F386957795E7
:100D10006795B795F795E7959F5FC1F7FE2B880F0D
:100D2000911D9695879597F908950E94AE05880BB9
:100D3000990B0895A1E21A2EAA1BBB1BFD010DC041
:100D4000AA1FBB1FEE1FFF1FA217B307E407F5077B
:100D500020F0A21BB30BE40BF50B661F771F881F57
:100D6000991F1A9469F760957095809590959B01ED
:100D7000AC01BD01CF010895EE0FFF1F0590F49166
:100D8000E02D0994F894FFCF00000000FA02A600BD
:100D90005A01590143454B2053554855205255415E
:100DA0004E47414E004C4142205449006E616E0056
:0A0DB000696E66006F76660043006E
:107800000C94343C0C94513C0C94513C0C94513CE1
:107810000C94513C0C94513C0C94513C0C94513CB4
:107820000C94513C0C94513C0C94513C0C94513CA4
:107830000C94513C0C94513C0C94513C0C94513C94
:107840000C94513C0C94513C0C94513C0C94513C84
:107850000C94513C0C94513C0C94513C0C94513C74
:107860000C94513C0C94513C11241FBECFEFD8E036
:10787000DEBFCDBF11E0A0E0B1E0ECE9FFE702C060
:1078800005900D92A230B107D9F712E0A2E0B1E065
:1078900001C01D92AD30B107E1F70E942D3D0C945F
:1078A000CC3F0C94003C982F959595959595959582
:1078B000905D8F708A307CF0282F295A8091C0000B
:1078C00085FFFCCF9093C6008091C00085FFFCCF60
:1078D0002093C6000895282F205DF0CF982F809127
:1078E000C00085FFFCCF9093C6000895EF92FF92F1
:1078F0000F931F93EE24FF2487018091C00087FD22
:1079000017C00894E11CF11C011D111D81E4E8164B
:1079100082E4F8068FE0080780E0180770F3E09132
:107920000401F091050109958091C00087FFE9CF1E
:107930008091C6001F910F91FF90EF9008950E94D3
:10794000763C982F8091C00085FFFCCF9093C600B5
:1079500091362CF490330CF09053892F089597555D
:10796000892F08951F930E949F3C182F0E949F3CCF
:107970001295107F810F1F9108951F93182F882350
:1079800021F00E94763C1150E1F71F9108951F935A
:10799000182F0E94763C803249F0809103018F5F5E
:1079A000809303018530C1F01F9108958091C0003C
:1079B00085FFFCCF84E18093C6008091C00085FFE5
:1079C000FCCF1093C6008091C00085FFFCCF80E102
:1079D0008093C6001F910895E0910401F091050184
:1079E00009951F9108950E94763C803241F0809164
:1079F00003018F5F80930301853081F008958091AA
:107A0000C00085FFFCCF84E18093C6008091C00058
:107A100085FFFCCF80E18093C6000895E0910401CA
:107A2000F09105010995089540E951E08823A1F0FE
:107A30002D9A28EE33E0FA013197F1F721503040CA
:107A4000D1F72D9828EE33E0FA013197F1F7215064
:107A50003040D1F7815061F708953F924F925F9285
:107A60006F927F928F929F92AF92BF92CF92DF924E
:107A7000EF92FF920F931F93CF93DF93000080E16B
:107A80008093C4001092C50088E18093C10086E015
:107A90008093C2005098589A259A81E00E94143D24
:107AA00024E1F22E9EE1E92E85E9D82E0FE0C02ECA
:107AB00010E1B12EAA24A394B1E49B2EA6E58A2E50
:107AC000F2E57F2EE0E26E2E79E4572E63E5462E36
:107AD00050E5352E0E94763C8033B1F18133B9F107
:107AE000803409F46FC0813409F476C0823409F41B
:107AF00085C0853409F488C0803531F1823521F1A3
:107B0000813511F1853509F485C0863509F48DC0BC
:107B1000843609F496C0843709F403C1853709F423
:107B200072C1863709F466C0809103018F5F80932C
:107B30000301853079F6E0910401F0910501099582
:107B40000E94763C803351F60E94F33CC3CF0E94E2
:107B5000763C803249F78091C00085FFFCCFF092DF
:107B6000C6008091C00085FFFCCF9092C600809136
:107B7000C00085FFFCCF8092C6008091C00085FFC9
:107B8000FCCF7092C6008091C00085FFFCCF609250
:107B9000C6008091C00085FFFCCF5092C600809146
:107BA000C00085FFFCCF4092C6008091C00085FFD9
:107BB000FCCF3092C6008091C00085FFFCCFB09210
:107BC000C60088CF0E94763C863808F4BDCF0E945C
:107BD000763C0E94F33C7ECF0E94763C803809F4CC
:107BE0009CC0813809F40BC1823809F43CC1883942
:107BF00009F48FC080E00E94C73C6CCF84E10E94F2
:107C0000BD3C0E94F33C66CF85E00E94BD3C0E94D3
:107C1000F33C60CF0E94763C809306010E94763C44
:107C2000809307010E94F33C55CF0E94763C80333D
:107C300009F41DC183E00E94BD3C80E00E94C73C66
:107C400049CF0E94763C809309020E94763C809343
:107C5000080280910C028E7F80930C020E94763C79
:107C6000853409F415C18091080290910902892B8D
:107C700089F000E010E00E94763CF801E85FFE4FDA
:107C800080830F5F1F4F80910802909109020817AF
:107C9000190788F30E94763C803209F045CF809125
:107CA0000C0280FF01C16091060170910701660F0F
:107CB000771F7093070160930601A0910802B091AD
:107CC00009021097C9F0E8E0F1E09B01AD014E0F09
:107CD0005F1FF999FECF32BD21BD819180BDFA9A17
:107CE000F99A2F5F3F4FE417F50799F76A0F7B1F4B
:107CF00070930701609306018091C00085FFFCCF5F
:107D0000F092C6008091C00085FFFCCFB092C60003
:107D1000E1CE83E00E94C73CDDCE82E00E94C73CFA
:107D2000D9CE0E94763C809309020E94763C8093D3
:107D300008028091060190910701880F991F909386
:107D40000701809306010E94763C853409F4A6C0A1
:107D500080910C028E7F80930C020E94763C8032D0
:107D600009F0B8CE8091C00085FFFCCFF092C6002C
:107D7000609108027091090261157105B9F140E046
:107D800050E080910C02A82FA170B82FB27011C0E2
:107D9000BB2309F45CC0E0910601F0910701319624
:107DA000F0930701E09306014F5F5F4F46175707B7
:107DB000E8F4AA2369F3F999FECF209106013091E6
:107DC000070132BD21BDF89A90B58091C00085FFB2
:107DD000FCCF9093C6002F5F3F4F30930701209355
:107DE00006014F5F5F4F4617570718F38091C00099
:107DF00085FDE5CE8091C00085FFF8CFE0CE81E023
:107E00000E94C73C67CE0E94763C803209F08CCE3F
:107E10008091C00085FFFCCFF092C6008091C00029
:107E200085FFFCCFE092C6008091C00085FFFCCFAB
:107E3000D092C6008091C00085FFFCCFC092C600E2
:107E40008091C00085FFFCCFB092C60043CEE09188
:107E50000601F091070194918091C00085FFFCCF4D
:107E60009093C6009CCF80E10E94C73C33CE0E9415
:107E7000763C0E94763C182F0E94763C112309F430
:107E800083C0113009F484C08FE00E94C73C22CE29
:107E900080910C02816080930C02E5CE80910C02EF
:107EA000816080930C0259CF809107018823880F4D
:107EB000880B8A2180930B02809106019091070123
:107EC000880F991F90930701809306018091080203
:107ED00080FF09C080910802909109020196909359
:107EE000090280930802F894F999FECF1127E091D6
:107EF0000601F0910701C8E0D1E08091080290915D
:107F00000902103091F40091570001700130D9F34B
:107F100003E000935700E89500915700017001308D
:107F2000D9F301E100935700E89509901990009169
:107F3000570001700130D9F301E000935700E89534
:107F40001395103498F011270091570001700130FB
:107F5000D9F305E000935700E895009157000170B0
:107F60000130D9F301E100935700E895329602976A
:107F700009F0C7CF103011F00296E5CF112480919F
:107F8000C00085FFB9CEBCCE8EE10E94C73CA2CD19
:0E7F900085E90E94C73C9ECDF894FFCF80008B
:00000001FF
